{
  "contractName": "Vote",
  "abi": [
    {
      "anonymous": false,
      "inputs": [
        {
          "indexed": false,
          "internalType": "uint256",
          "name": "id",
          "type": "uint256"
        }
      ],
      "name": "voteCasted",
      "type": "event"
    },
    {
      "inputs": [
        {
          "internalType": "string",
          "name": "first",
          "type": "string"
        },
        {
          "internalType": "string",
          "name": "last",
          "type": "string"
        },
        {
          "internalType": "uint256",
          "name": "id",
          "type": "uint256"
        },
        {
          "internalType": "bool",
          "name": "party",
          "type": "bool"
        }
      ],
      "name": "castVote",
      "outputs": [],
      "stateMutability": "nonpayable",
      "type": "function"
    },
    {
      "inputs": [
        {
          "internalType": "uint256",
          "name": "id",
          "type": "uint256"
        }
      ],
      "name": "getVote",
      "outputs": [
        {
          "internalType": "string",
          "name": "",
          "type": "string"
        }
      ],
      "stateMutability": "view",
      "type": "function"
    },
    {
      "inputs": [
        {
          "internalType": "uint256",
          "name": "id",
          "type": "uint256"
        }
      ],
      "name": "getVoterId",
      "outputs": [
        {
          "internalType": "uint256",
          "name": "",
          "type": "uint256"
        }
      ],
      "stateMutability": "view",
      "type": "function"
    },
    {
      "inputs": [
        {
          "internalType": "bool",
          "name": "party",
          "type": "bool"
        }
      ],
      "name": "getCount",
      "outputs": [
        {
          "internalType": "uint256",
          "name": "",
          "type": "uint256"
        }
      ],
      "stateMutability": "view",
      "type": "function"
    }
  ],
  "bytecode": "0x608060405234801561001057600080fd5b50610756806100206000396000f3fe608060405234801561001057600080fd5b506004361061004c5760003560e01c80635a55c1f014610051578063923f852a146100f85780639ab9ced214610260578063a2b67c11146102a4575b600080fd5b61007d6004803603602081101561006757600080fd5b81019080803590602001909291905050506102e6565b6040518080602001828103825283818151815260200191508051906020019080838360005b838110156100bd5780820151818401526020810190506100a2565b50505050905090810190601f1680156100ea5780820380516001836020036101000a031916815260200191505b509250505060405180910390f35b61025e6004803603608081101561010e57600080fd5b810190808035906020019064010000000081111561012b57600080fd5b82018360208201111561013d57600080fd5b8035906020019184600183028401116401000000008311171561015f57600080fd5b91908080601f016020809104026020016040519081016040528093929190818152602001838380828437600081840152601f19601f820116905080830192505050505050509192919290803590602001906401000000008111156101c257600080fd5b8201836020820111156101d457600080fd5b803590602001918460018302840111640100000000831117156101f657600080fd5b91908080601f016020809104026020016040519081016040528093929190818152602001838380828437600081840152601f19601f82011690508083019250505050505050919291929080359060200190929190803515159060200190929190505050610428565b005b61028e6004803603602081101561027657600080fd5b810190808035151590602001909291905050506105ce565b6040518082815260200191505060405180910390f35b6102d0600480360360208110156102ba57600080fd5b81019080803590602001909291905050506105ef565b6040518082815260200191505060405180910390f35b606081806000803373ffffffffffffffffffffffffffffffffffffffff1673ffffffffffffffffffffffffffffffffffffffff168152602001908152602001600020541461033357600080fd5b60005b60028054905081101561042057836002828154811061035157fe5b9060005260206000209060040201600201541415610413576002818154811061037657fe5b906000526020600020906004020160030160009054906101000a900460ff166103d4576040518060400160405280600181526020017f4f0000000000000000000000000000000000000000000000000000000000000081525061040b565b6040518060400160405280600181526020017f50000000000000000000000000000000000000000000000000000000000000008152505b925050610422565b8080600101915050610336565b505b50919050565b60008060003373ffffffffffffffffffffffffffffffffffffffff1673ffffffffffffffffffffffffffffffffffffffff168152602001908152602001600020541461047357600080fd5b816000803373ffffffffffffffffffffffffffffffffffffffff1673ffffffffffffffffffffffffffffffffffffffff168152602001908152602001600020819055506002604051806080016040528086815260200185815260200184815260200183151581525090806001815401808255809150506001900390600052602060002090600402016000909190919091506000820151816000019080519060200190610520929190610683565b50602082015181600101908051906020019061053d929190610683565b506040820151816002015560608201518160030160006101000a81548160ff02191690831515021790555050506001600082151515158152602001908152602001600020600081548092919060010191905055507fd7333e4db0f361bf45a40272dbae59f63545d32442b6c1548b51677b143f3bff826040518082815260200191505060405180910390a150505050565b60006001600083151515158152602001908152602001600020549050919050565b600081806000803373ffffffffffffffffffffffffffffffffffffffff1673ffffffffffffffffffffffffffffffffffffffff168152602001908152602001600020541461063c57600080fd5b6000803373ffffffffffffffffffffffffffffffffffffffff1673ffffffffffffffffffffffffffffffffffffffff16815260200190815260200160002054915050919050565b828054600181600116156101000203166002900490600052602060002090601f016020900481019282601f106106c457805160ff19168380011785556106f2565b828001600101855582156106f2579182015b828111156106f15782518255916020019190600101906106d6565b5b5090506106ff9190610703565b5090565b5b8082111561071c576000816000905550600101610704565b509056fea2646970667358221220e376ef091b4ffc022e6000ea2b070424f60d96128fcae714efe148c13155029064736f6c634300060c0033",
  "immutableReferences": {},
  "source": "pragma solidity >= 0.4.0 < 0.8.0;\n\nimport \"openzeppelin-solidity/contracts/token/ERC721/ERC721.sol\";\n\ncontract Vote {\n\n    // Voter info\n    struct Voter {\n        string first_name;\n        string last_name;\n        uint id;\n        bool party_vote; // true = Party P; false = Party O\n    }\n\n    // Event to update front-end that a new voter has casted their vote.\n    event voteCasted(uint id);\n\n    // associate eth address to voter's id.\n    mapping (address => uint) private addressToVoter;\n\n    // vote counts for each party.\n    mapping (bool => uint256) private partyCount;\n\n    // voter's list.\n    Voter[] internal voters;\n\n    function castVote(string memory first, string memory last, uint id, bool party) public {\n        // voters can only vote once.\n        require(addressToVoter[msg.sender] == 0);\n        addressToVoter[msg.sender] = id;\n        voters.push(Voter(first, last, id, party));\n        partyCount[party]++;\n        emit voteCasted(id);\n    }\n\n    // verifies the voter by their id\n    modifier isRegisteredVoter(uint id) {\n        require(addressToVoter[msg.sender] == id);\n        _;\n    }\n\n    function getVote(uint id) public view isRegisteredVoter(id) returns (string memory) {\n        for (uint i = 0; i < voters.length; i++) {\n            if (voters[i].id == id) {\n                return voters[i].party_vote ? \"P\" : \"O\";\n            }\n        }\n    }\n\n    function getVoterId(uint id) public view isRegisteredVoter(id) returns (uint) {\n        return addressToVoter[msg.sender];\n    }\n\n    function getCount(bool party) public view returns (uint256) {\n        return partyCount[party];\n    }\n}",
  "sourcePath": "/mnt/d/Projects/Solidity/dElection/contracts/Vote.sol",
  "compiler": {
    "name": "solc",
    "version": "0.6.12+commit.27d51765.Emscripten.clang"
  },
  "schemaVersion": "3.3.2",
  "updatedAt": "2020-11-17T23:16:51.281Z",
  "devdoc": {
    "kind": "dev",
    "methods": {},
    "version": 1
  },
  "userdoc": {
    "kind": "user",
    "methods": {},
    "version": 1
  }
}