{
  "contractName": "Vote",
  "abi": [
    {
      "anonymous": false,
      "inputs": [
        {
          "indexed": false,
          "internalType": "uint256",
          "name": "id",
          "type": "uint256"
        }
      ],
      "name": "voteCasted",
      "type": "event"
    },
    {
      "inputs": [
        {
          "internalType": "string",
          "name": "first",
          "type": "string"
        },
        {
          "internalType": "string",
          "name": "last",
          "type": "string"
        },
        {
          "internalType": "uint256",
          "name": "id",
          "type": "uint256"
        },
        {
          "internalType": "bool",
          "name": "party",
          "type": "bool"
        }
      ],
      "name": "castVote",
      "outputs": [],
      "stateMutability": "nonpayable",
      "type": "function"
    },
    {
      "inputs": [
        {
          "internalType": "uint256",
          "name": "id",
          "type": "uint256"
        }
      ],
      "name": "getVote",
      "outputs": [
        {
          "internalType": "string",
          "name": "",
          "type": "string"
        }
      ],
      "stateMutability": "view",
      "type": "function"
    },
    {
      "inputs": [
        {
          "internalType": "bool",
          "name": "party",
          "type": "bool"
        }
      ],
      "name": "getCount",
      "outputs": [
        {
          "internalType": "uint256",
          "name": "",
          "type": "uint256"
        }
      ],
      "stateMutability": "view",
      "type": "function"
    },
    {
      "inputs": [
        {
          "internalType": "uint256",
          "name": "id",
          "type": "uint256"
        }
      ],
      "name": "getVoterAddress",
      "outputs": [
        {
          "internalType": "address",
          "name": "",
          "type": "address"
        }
      ],
      "stateMutability": "view",
      "type": "function"
    }
  ],
  "bytecode": "0x608060405234801561001057600080fd5b506107ce806100206000396000f3fe608060405234801561001057600080fd5b506004361061004c5760003560e01c80635a55c1f014610051578063923f852a146100f85780639ab9ced214610260578063d83b2c05146102a4575b600080fd5b61007d6004803603602081101561006757600080fd5b81019080803590602001909291905050506102fc565b6040518080602001828103825283818151815260200191508051906020019080838360005b838110156100bd5780820151818401526020810190506100a2565b50505050905090810190601f1680156100ea5780820380516001836020036101000a031916815260200191505b509250505060405180910390f35b61025e6004803603608081101561010e57600080fd5b810190808035906020019064010000000081111561012b57600080fd5b82018360208201111561013d57600080fd5b8035906020019184600183028401116401000000008311171561015f57600080fd5b91908080601f016020809104026020016040519081016040528093929190818152602001838380828437600081840152601f19601f820116905080830192505050505050509192919290803590602001906401000000008111156101c257600080fd5b8201836020820111156101d457600080fd5b803590602001918460018302840111640100000000831117156101f657600080fd5b91908080601f016020809104026020016040519081016040528093929190818152602001838380828437600081840152601f19601f8201169050808301925050505050505091929192908035906020019092919080351515906020019092919050505061045e565b005b61028e6004803603602081101561027657600080fd5b81019080803515159060200190929190505050610632565b6040518082815260200191505060405180910390f35b6102d0600480360360208110156102ba57600080fd5b8101908080359060200190929190505050610653565b604051808273ffffffffffffffffffffffffffffffffffffffff16815260200191505060405180910390f35b6060813373ffffffffffffffffffffffffffffffffffffffff1660008083815260200190815260200160002060009054906101000a900473ffffffffffffffffffffffffffffffffffffffff1673ffffffffffffffffffffffffffffffffffffffff161461036957600080fd5b60005b60028054905081101561045657836002828154811061038757fe5b906000526020600020906004020160020154141561044957600281815481106103ac57fe5b906000526020600020906004020160030160009054906101000a900460ff1661040a576040518060400160405280600181526020017f4f00000000000000000000000000000000000000000000000000000000000000815250610441565b6040518060400160405280600181526020017f50000000000000000000000000000000000000000000000000000000000000008152505b925050610458565b808060010191505061036c565b505b50919050565b600073ffffffffffffffffffffffffffffffffffffffff1660008084815260200190815260200160002060009054906101000a900473ffffffffffffffffffffffffffffffffffffffff1673ffffffffffffffffffffffffffffffffffffffff16146104c957600080fd5b3360008084815260200190815260200160002060006101000a81548173ffffffffffffffffffffffffffffffffffffffff021916908373ffffffffffffffffffffffffffffffffffffffff16021790555060026040518060800160405280868152602001858152602001848152602001831515815250908060018154018082558091505060019003906000526020600020906004020160009091909190915060008201518160000190805190602001906105849291906106fb565b5060208201518160010190805190602001906105a19291906106fb565b506040820151816002015560608201518160030160006101000a81548160ff02191690831515021790555050506001600082151515158152602001908152602001600020600081548092919060010191905055507fd7333e4db0f361bf45a40272dbae59f63545d32442b6c1548b51677b143f3bff826040518082815260200191505060405180910390a150505050565b60006001600083151515158152602001908152602001600020549050919050565b6000813373ffffffffffffffffffffffffffffffffffffffff1660008083815260200190815260200160002060009054906101000a900473ffffffffffffffffffffffffffffffffffffffff1673ffffffffffffffffffffffffffffffffffffffff16146106c057600080fd5b60008084815260200190815260200160002060009054906101000a900473ffffffffffffffffffffffffffffffffffffffff16915050919050565b828054600181600116156101000203166002900490600052602060002090601f016020900481019282601f1061073c57805160ff191683800117855561076a565b8280016001018555821561076a579182015b8281111561076957825182559160200191906001019061074e565b5b509050610777919061077b565b5090565b5b8082111561079457600081600090555060010161077c565b509056fea26469706673582212201d790ad51c00d5edd37f11dc74692f09f8c4bca3e7bf5721a06b868e89c42ea964736f6c634300060c0033",
  "immutableReferences": {},
  "source": "pragma solidity >= 0.4.0 < 0.8.0;\n\nimport \"@openzeppelin/contracts/token/ERC721/ERC721.sol\";\n\ncontract Vote {\n\n    // Voter info\n    struct Voter {\n        string first_name;\n        string last_name;\n        uint id;\n        bool party_vote; // true = Party P; false = Party O\n    }\n\n    // Event to update the front-end to show that a new voter has casted their vote.\n    event voteCasted(uint id);\n\n    // associate eth address to voter's id.\n    mapping (uint => address) private voterToAddress;\n\n    // vote counts for each party.\n    mapping (bool => uint256) private partyCount;\n\n    // voter's list.\n    Voter[] internal voters;\n\n    function castVote(string memory first, string memory last, uint id, bool party) public {\n        // voters can only vote once.\n        require(voterToAddress[id] == address(0));\n        voterToAddress[id] = msg.sender;\n        voters.push(Voter(first, last, id, party));\n        partyCount[party]++;\n        emit voteCasted(id);\n    }\n\n    // verifies the voter by their id\n    modifier isRegisteredVoter(uint id) {\n        require(voterToAddress[id] == msg.sender);\n        _;\n    }\n\n    function getVote(uint id) public view isRegisteredVoter(id) returns (string memory) {\n        for (uint i = 0; i < voters.length; i++) {\n            if (voters[i].id == id) {\n                return voters[i].party_vote ? \"P\" : \"O\";\n            }\n        }\n    }\n\n    function getCount(bool party) public view returns (uint256) {\n        return partyCount[party];\n    }\n\n    function getVoterAddress(uint id) public view isRegisteredVoter(id) returns (address) {\n        return voterToAddress[id];\n    }\n}",
  "sourcePath": "/mnt/d/Projects/Solidity/dElection/contracts/Vote.sol",
  "compiler": {
    "name": "solc",
    "version": "0.6.12+commit.27d51765.Emscripten.clang"
  },
  "schemaVersion": "3.3.2",
  "updatedAt": "2020-11-18T06:05:51.604Z",
  "devdoc": {
    "kind": "dev",
    "methods": {},
    "version": 1
  },
  "userdoc": {
    "kind": "user",
    "methods": {},
    "version": 1
  }
}