{
  "contractName": "Vote",
  "abi": [
    {
      "anonymous": false,
      "inputs": [
        {
          "indexed": false,
          "internalType": "uint8",
          "name": "id",
          "type": "uint8"
        }
      ],
      "name": "voteCasted",
      "type": "event"
    },
    {
      "inputs": [
        {
          "internalType": "address",
          "name": "",
          "type": "address"
        }
      ],
      "name": "addressToVoter",
      "outputs": [
        {
          "internalType": "uint8",
          "name": "",
          "type": "uint8"
        }
      ],
      "stateMutability": "view",
      "type": "function"
    },
    {
      "inputs": [
        {
          "internalType": "bool",
          "name": "",
          "type": "bool"
        }
      ],
      "name": "partyCount",
      "outputs": [
        {
          "internalType": "uint256",
          "name": "",
          "type": "uint256"
        }
      ],
      "stateMutability": "view",
      "type": "function"
    },
    {
      "inputs": [
        {
          "internalType": "string",
          "name": "first",
          "type": "string"
        },
        {
          "internalType": "string",
          "name": "last",
          "type": "string"
        },
        {
          "internalType": "uint8",
          "name": "id",
          "type": "uint8"
        },
        {
          "internalType": "bool",
          "name": "party",
          "type": "bool"
        }
      ],
      "name": "castVote",
      "outputs": [],
      "stateMutability": "nonpayable",
      "type": "function"
    },
    {
      "inputs": [
        {
          "internalType": "uint8",
          "name": "id",
          "type": "uint8"
        }
      ],
      "name": "getVote",
      "outputs": [
        {
          "internalType": "string",
          "name": "",
          "type": "string"
        }
      ],
      "stateMutability": "view",
      "type": "function"
    },
    {
      "inputs": [
        {
          "internalType": "bool",
          "name": "inputParty",
          "type": "bool"
        }
      ],
      "name": "getPartyCount",
      "outputs": [
        {
          "internalType": "uint256",
          "name": "",
          "type": "uint256"
        }
      ],
      "stateMutability": "view",
      "type": "function"
    }
  ],
  "bytecode": "0x608060405234801561001057600080fd5b506107cf806100206000396000f3fe608060405234801561001057600080fd5b50600436106100575760003560e01c8063124474a71461005c5780635b785eac14610106578063a0eca4a014610161578063ad18535e146102cc578063fa379ece14610310575b600080fd5b61008b6004803603602081101561007257600080fd5b81019080803560ff169060200190929190505050610354565b6040518080602001828103825283818151815260200191508051906020019080838360005b838110156100cb5780820151818401526020810190506100b0565b50505050905090810190601f1680156100f85780820380516001836020036101000a031916815260200191505b509250505060405180910390f35b6101486004803603602081101561011c57600080fd5b81019080803573ffffffffffffffffffffffffffffffffffffffff1690602001909291905050506104bc565b604051808260ff16815260200191505060405180910390f35b6102ca6004803603608081101561017757600080fd5b810190808035906020019064010000000081111561019457600080fd5b8201836020820111156101a657600080fd5b803590602001918460018302840111640100000000831117156101c857600080fd5b91908080601f016020809104026020016040519081016040528093929190818152602001838380828437600081840152601f19601f8201169050808301925050505050505091929192908035906020019064010000000081111561022b57600080fd5b82018360208201111561023d57600080fd5b8035906020019184600183028401116401000000008311171561025f57600080fd5b91908080601f016020809104026020016040519081016040528093929190818152602001838380828437600081840152601f19601f820116905080830192505050505050509192919290803560ff1690602001909291908035151590602001909291905050506104dc565b005b6102fa600480360360208110156102e257600080fd5b810190808035151590602001909291905050506106c3565b6040518082815260200191505060405180910390f35b61033e6004803603602081101561032657600080fd5b810190808035151590602001909291905050506106e4565b6040518082815260200191505060405180910390f35b6060818060ff166000803373ffffffffffffffffffffffffffffffffffffffff1673ffffffffffffffffffffffffffffffffffffffff16815260200190815260200160002060009054906101000a900460ff1660ff16146103b457600080fd5b60005b6002805490508110156104b4578360ff16600282815481106103d557fe5b906000526020600020906003020160020160009054906101000a900460ff1660ff1614156104a7576002818154811061040a57fe5b906000526020600020906003020160020160019054906101000a900460ff16610468576040518060400160405280600181526020017f4f0000000000000000000000000000000000000000000000000000000000000081525061049f565b6040518060400160405280600181526020017f50000000000000000000000000000000000000000000000000000000000000008152505b9250506104b6565b80806001019150506103b7565b505b50919050565b60006020528060005260406000206000915054906101000a900460ff1681565b60008060003373ffffffffffffffffffffffffffffffffffffffff1673ffffffffffffffffffffffffffffffffffffffff16815260200190815260200160002060009054906101000a900460ff1660ff161461053757600080fd5b816000803373ffffffffffffffffffffffffffffffffffffffff1673ffffffffffffffffffffffffffffffffffffffff16815260200190815260200160002060006101000a81548160ff021916908360ff160217905550600260405180608001604052808681526020018581526020018460ff168152602001831515815250908060018154018082558091505060019003906000526020600020906003020160009091909190915060008201518160000190805190602001906105fb9291906106fc565b5060208201518160010190805190602001906106189291906106fc565b5060408201518160020160006101000a81548160ff021916908360ff16021790555060608201518160020160016101000a81548160ff02191690831515021790555050506001600082151515158152602001908152602001600020600081548092919060010191905055507ffbfb8eb33978b8894cb835d51212c1ab47c34a8f4b9964e8bd034e43c3808b1a82604051808260ff16815260200191505060405180910390a150505050565b60006001600083151515158152602001908152602001600020549050919050565b60016020528060005260406000206000915090505481565b828054600181600116156101000203166002900490600052602060002090601f016020900481019282601f1061073d57805160ff191683800117855561076b565b8280016001018555821561076b579182015b8281111561076a57825182559160200191906001019061074f565b5b509050610778919061077c565b5090565b5b8082111561079557600081600090555060010161077d565b509056fea2646970667358221220767b97df006b59d2ef4075df98dc69ceb691c9c86b6e489b97f1b9efafd9779664736f6c634300060c0033",
  "immutableReferences": {},
  "source": "pragma solidity ^0.6.0;\n\nimport \"openzeppelin-solidity/contracts/token/ERC721/ERC721.sol\";\n\ncontract Vote {\n\n    // Voter info\n    struct Voter {\n        string first_name;\n        string last_name;\n        uint8 id;\n        bool party_vote; // true = Party P; false = Party O\n    }\n\n    // Event to update front-end that a new voter has casted their vote.\n    event voteCasted(uint8 id);\n\n    // associate eth address to voter's id.\n    mapping (address => uint8) public addressToVoter;\n\n    // vote counts for each party.\n    mapping (bool => uint256) public partyCount;\n\n    // voter's list.\n    Voter[] internal voters;\n\n    function castVote(string memory first, string memory last, uint8 id, bool party) public {\n        // voters can only vote once.\n        require(addressToVoter[msg.sender] == 0);\n        addressToVoter[msg.sender] = id;\n        voters.push(Voter(first, last, id, party));\n        partyCount[party]++;\n        emit voteCasted(id);\n    }\n\n    // verifies the voter by their id\n    modifier isRegisteredVoter(uint8 id) {\n        require(addressToVoter[msg.sender] == id);\n        _;\n    }\n\n    function getVote(uint8 id) public view isRegisteredVoter(id) returns (string memory) {\n        for (uint i = 0; i < voters.length; i++) {\n            if (voters[i].id == id) {\n                return voters[i].party_vote ? \"P\" : \"O\";\n            }\n        }\n    }\n\n    function getPartyCount(bool inputParty) public view returns (uint256) {\n        return partyCount[inputParty];\n    }\n}",
  "sourcePath": "/mnt/d/Projects/Solidity/dElection/contracts/Vote.sol",
  "compiler": {
    "name": "solc",
    "version": "0.6.12+commit.27d51765.Emscripten.clang"
  },
  "schemaVersion": "3.3.2",
  "updatedAt": "2020-11-17T07:21:02.977Z",
  "devdoc": {
    "kind": "dev",
    "methods": {},
    "version": 1
  },
  "userdoc": {
    "kind": "user",
    "methods": {},
    "version": 1
  }
}